{
  "contractName": "kart",
  "abi": [
    {
      "anonymous": false,
      "inputs": [
        {
          "indexed": false,
          "internalType": "uint256",
          "name": "productId",
          "type": "uint256"
        },
        {
          "indexed": false,
          "internalType": "address",
          "name": "buyer",
          "type": "address"
        }
      ],
      "name": "bought",
      "type": "event"
    },
    {
      "anonymous": false,
      "inputs": [
        {
          "indexed": false,
          "internalType": "uint256",
          "name": "productId",
          "type": "uint256"
        }
      ],
      "name": "delivery",
      "type": "event"
    },
    {
      "anonymous": false,
      "inputs": [
        {
          "indexed": false,
          "internalType": "string",
          "name": "title",
          "type": "string"
        },
        {
          "indexed": false,
          "internalType": "uint256",
          "name": "productId",
          "type": "uint256"
        }
      ],
      "name": "registered",
      "type": "event"
    },
    {
      "inputs": [],
      "name": "counter",
      "outputs": [
        {
          "internalType": "uint256",
          "name": "",
          "type": "uint256"
        }
      ],
      "stateMutability": "view",
      "type": "function"
    },
    {
      "inputs": [
        {
          "internalType": "uint256",
          "name": "",
          "type": "uint256"
        }
      ],
      "name": "products",
      "outputs": [
        {
          "internalType": "uint256",
          "name": "productId",
          "type": "uint256"
        },
        {
          "internalType": "string",
          "name": "desc",
          "type": "string"
        },
        {
          "internalType": "string",
          "name": "title",
          "type": "string"
        },
        {
          "internalType": "address payable",
          "name": "seller",
          "type": "address"
        },
        {
          "internalType": "address",
          "name": "buyer",
          "type": "address"
        },
        {
          "internalType": "bool",
          "name": "delivered",
          "type": "bool"
        },
        {
          "internalType": "uint256",
          "name": "price",
          "type": "uint256"
        }
      ],
      "stateMutability": "view",
      "type": "function"
    },
    {
      "inputs": [
        {
          "internalType": "string",
          "name": "_title",
          "type": "string"
        },
        {
          "internalType": "string",
          "name": "_desc",
          "type": "string"
        },
        {
          "internalType": "uint256",
          "name": "_price",
          "type": "uint256"
        }
      ],
      "name": "register",
      "outputs": [],
      "stateMutability": "nonpayable",
      "type": "function"
    },
    {
      "inputs": [
        {
          "internalType": "uint256",
          "name": "_productId",
          "type": "uint256"
        }
      ],
      "name": "buy",
      "outputs": [],
      "stateMutability": "payable",
      "type": "function"
    },
    {
      "inputs": [
        {
          "internalType": "uint256",
          "name": "_productId",
          "type": "uint256"
        }
      ],
      "name": "delivered",
      "outputs": [],
      "stateMutability": "nonpayable",
      "type": "function"
    }
  ],
  "bytecode": "0x6080604052600160005534801561001557600080fd5b50611580806100256000396000f3fe60806040526004361061004a5760003560e01c80634b5e41081461004f57806361bc221a146100785780637acc0b20146100a3578063d96a094a146100e6578063e8a6055814610102575b600080fd5b34801561005b57600080fd5b5061007660048036038101906100719190610bec565b61012b565b005b34801561008457600080fd5b5061008d6105a5565b60405161009a9190610c28565b60405180910390f35b3480156100af57600080fd5b506100ca60048036038101906100c59190610bec565b6105ab565b6040516100dd9796959493929190610d50565b60405180910390f35b61010060048036038101906100fb9190610bec565b61075a565b005b34801561010e57600080fd5b5061012960048036038101906101249190610f02565b610912565b005b60006001808361013b9190610fbc565b8154811061014c5761014b610ff0565b5b90600052602060002090600602016040518060e00160405290816000820154815260200160018201805461017f9061104e565b80601f01602080910402602001604051908101604052809291908181526020018280546101ab9061104e565b80156101f85780601f106101cd576101008083540402835291602001916101f8565b820191906000526020600020905b8154815290600101906020018083116101db57829003601f168201915b505050505081526020016002820180546102119061104e565b80601f016020809104026020016040519081016040528092919081815260200182805461023d9061104e565b801561028a5780601f1061025f5761010080835404028352916020019161028a565b820191906000526020600020905b81548152906001019060200180831161026d57829003601f168201915b505050505081526020016003820160009054906101000a900473ffffffffffffffffffffffffffffffffffffffff1673ffffffffffffffffffffffffffffffffffffffff1673ffffffffffffffffffffffffffffffffffffffff1681526020016004820160009054906101000a900473ffffffffffffffffffffffffffffffffffffffff1673ffffffffffffffffffffffffffffffffffffffff1673ffffffffffffffffffffffffffffffffffffffff1681526020016004820160149054906101000a900460ff1615151515815260200160058201548152505090503373ffffffffffffffffffffffffffffffffffffffff16816080015173ffffffffffffffffffffffffffffffffffffffff16146103d8576040517f08c379a00000000000000000000000000000000000000000000000000000000081526004016103cf906110cb565b60405180910390fd5b60018160a001901515908115158152505080600180846103f89190610fbc565b8154811061040957610408610ff0565b5b90600052602060002090600602016000820151816000015560208201518160010190816104369190611297565b50604082015181600201908161044c9190611297565b5060608201518160030160006101000a81548173ffffffffffffffffffffffffffffffffffffffff021916908373ffffffffffffffffffffffffffffffffffffffff16021790555060808201518160040160006101000a81548173ffffffffffffffffffffffffffffffffffffffff021916908373ffffffffffffffffffffffffffffffffffffffff16021790555060a08201518160040160146101000a81548160ff02191690831515021790555060c08201518160050155905050806060015173ffffffffffffffffffffffffffffffffffffffff166108fc670de0b6b3a76400008360c0015161053e9190611369565b9081150290604051600060405180830381858888f19350505050158015610569573d6000803e3d6000fd5b507f1144fd7221d71bfa5b40775c2ec678fbc890e87e25c9f6a794b6e555984f1fa3826040516105999190610c28565b60405180910390a15050565b60005481565b600181815481106105bb57600080fd5b90600052602060002090600602016000915090508060000154908060010180546105e49061104e565b80601f01602080910402602001604051908101604052809291908181526020018280546106109061104e565b801561065d5780601f106106325761010080835404028352916020019161065d565b820191906000526020600020905b81548152906001019060200180831161064057829003601f168201915b5050505050908060020180546106729061104e565b80601f016020809104026020016040519081016040528092919081815260200182805461069e9061104e565b80156106eb5780601f106106c0576101008083540402835291602001916106eb565b820191906000526020600020905b8154815290600101906020018083116106ce57829003601f168201915b5050505050908060030160009054906101000a900473ffffffffffffffffffffffffffffffffffffffff16908060040160009054906101000a900473ffffffffffffffffffffffffffffffffffffffff16908060040160149054906101000a900460ff16908060050154905087565b3373ffffffffffffffffffffffffffffffffffffffff166001808361077f9190610fbc565b815481106107905761078f610ff0565b5b906000526020600020906006020160030160009054906101000a900473ffffffffffffffffffffffffffffffffffffffff1673ffffffffffffffffffffffffffffffffffffffff1603610818576040517f08c379a000000000000000000000000000000000000000000000000000000000815260040161080f906113f7565b60405180910390fd5b670de0b6b3a76400006001808361082f9190610fbc565b815481106108405761083f610ff0565b5b90600052602060002090600602016005015461085c9190611369565b341461086757600080fd5b33600180836108769190610fbc565b8154811061088757610886610ff0565b5b906000526020600020906006020160040160006101000a81548173ffffffffffffffffffffffffffffffffffffffff021916908373ffffffffffffffffffffffffffffffffffffffff1602179055507f2c9b5e9655a41ab13c5183c231239df125ecbd546a947624c913cfd43094906e8133604051610907929190611417565b60405180910390a150565b60008111610955576040517f08c379a000000000000000000000000000000000000000000000000000000000815260040161094c906114b2565b60405180910390fd5b61095d610b37565b838160400181905250828160200181905250818160c001818152505033816060019073ffffffffffffffffffffffffffffffffffffffff16908173ffffffffffffffffffffffffffffffffffffffff16815250506000548160000181815250506001819080600181540180825580915050600190039060005260206000209060060201600090919091909150600082015181600001556020820151816001019081610a089190611297565b506040820151816002019081610a1e9190611297565b5060608201518160030160006101000a81548173ffffffffffffffffffffffffffffffffffffffff021916908373ffffffffffffffffffffffffffffffffffffffff16021790555060808201518160040160006101000a81548173ffffffffffffffffffffffffffffffffffffffff021916908373ffffffffffffffffffffffffffffffffffffffff16021790555060a08201518160040160146101000a81548160ff02191690831515021790555060c082015181600501555050600080815480929190610aeb906114d2565b91905055507f23ae061abe7d96373dafa8582562947160cd2011dedc148b0b8ec0de2f6866f481604001518260000151604051610b2992919061151a565b60405180910390a150505050565b6040518060e00160405280600081526020016060815260200160608152602001600073ffffffffffffffffffffffffffffffffffffffff168152602001600073ffffffffffffffffffffffffffffffffffffffff168152602001600015158152602001600081525090565b6000604051905090565b600080fd5b600080fd5b6000819050919050565b610bc981610bb6565b8114610bd457600080fd5b50565b600081359050610be681610bc0565b92915050565b600060208284031215610c0257610c01610bac565b5b6000610c1084828501610bd7565b91505092915050565b610c2281610bb6565b82525050565b6000602082019050610c3d6000830184610c19565b92915050565b600081519050919050565b600082825260208201905092915050565b60005b83811015610c7d578082015181840152602081019050610c62565b60008484015250505050565b6000601f19601f8301169050919050565b6000610ca582610c43565b610caf8185610c4e565b9350610cbf818560208601610c5f565b610cc881610c89565b840191505092915050565b600073ffffffffffffffffffffffffffffffffffffffff82169050919050565b6000610cfe82610cd3565b9050919050565b610d0e81610cf3565b82525050565b6000610d1f82610cd3565b9050919050565b610d2f81610d14565b82525050565b60008115159050919050565b610d4a81610d35565b82525050565b600060e082019050610d65600083018a610c19565b8181036020830152610d778189610c9a565b90508181036040830152610d8b8188610c9a565b9050610d9a6060830187610d05565b610da76080830186610d26565b610db460a0830185610d41565b610dc160c0830184610c19565b98975050505050505050565b600080fd5b600080fd5b7f4e487b7100000000000000000000000000000000000000000000000000000000600052604160045260246000fd5b610e0f82610c89565b810181811067ffffffffffffffff82111715610e2e57610e2d610dd7565b5b80604052505050565b6000610e41610ba2565b9050610e4d8282610e06565b919050565b600067ffffffffffffffff821115610e6d57610e6c610dd7565b5b610e7682610c89565b9050602081019050919050565b82818337600083830152505050565b6000610ea5610ea084610e52565b610e37565b905082815260208101848484011115610ec157610ec0610dd2565b5b610ecc848285610e83565b509392505050565b600082601f830112610ee957610ee8610dcd565b5b8135610ef9848260208601610e92565b91505092915050565b600080600060608486031215610f1b57610f1a610bac565b5b600084013567ffffffffffffffff811115610f3957610f38610bb1565b5b610f4586828701610ed4565b935050602084013567ffffffffffffffff811115610f6657610f65610bb1565b5b610f7286828701610ed4565b9250506040610f8386828701610bd7565b9150509250925092565b7f4e487b7100000000000000000000000000000000000000000000000000000000600052601160045260246000fd5b6000610fc782610bb6565b9150610fd283610bb6565b9250828203905081811115610fea57610fe9610f8d565b5b92915050565b7f4e487b7100000000000000000000000000000000000000000000000000000000600052603260045260246000fd5b7f4e487b7100000000000000000000000000000000000000000000000000000000600052602260045260246000fd5b6000600282049050600182168061106657607f821691505b6020821081036110795761107861101f565b5b50919050565b7f4f6e6c792062757965722073686f756c642063616c6c20746869730000000000600082015250565b60006110b5601b83610c4e565b91506110c08261107f565b602082019050919050565b600060208201905081810360008301526110e4816110a8565b9050919050565b60008190508160005260206000209050919050565b60006020601f8301049050919050565b600082821b905092915050565b60006008830261114d7fffffffffffffffffffffffffffffffffffffffffffffffffffffffffffffffff82611110565b6111578683611110565b95508019841693508086168417925050509392505050565b6000819050919050565b600061119461118f61118a84610bb6565b61116f565b610bb6565b9050919050565b6000819050919050565b6111ae83611179565b6111c26111ba8261119b565b84845461111d565b825550505050565b600090565b6111d76111ca565b6111e28184846111a5565b505050565b5b81811015611206576111fb6000826111cf565b6001810190506111e8565b5050565b601f82111561124b5761121c816110eb565b61122584611100565b81016020851015611234578190505b61124861124085611100565b8301826111e7565b50505b505050565b600082821c905092915050565b600061126e60001984600802611250565b1980831691505092915050565b6000611287838361125d565b9150826002028217905092915050565b6112a082610c43565b67ffffffffffffffff8111156112b9576112b8610dd7565b5b6112c3825461104e565b6112ce82828561120a565b600060209050601f83116001811461130157600084156112ef578287015190505b6112f9858261127b565b865550611361565b601f19841661130f866110eb565b60005b8281101561133757848901518255600182019150602085019450602081019050611312565b868310156113545784890151611350601f89168261125d565b8355505b6001600288020188555050505b505050505050565b600061137482610bb6565b915061137f83610bb6565b925082820261138d81610bb6565b915082820484148315176113a4576113a3610f8d565b5b5092915050565b7f53656c6c65722063616e6e6f7420627579000000000000000000000000000000600082015250565b60006113e1601183610c4e565b91506113ec826113ab565b602082019050919050565b60006020820190508181036000830152611410816113d4565b9050919050565b600060408201905061142c6000830185610c19565b6114396020830184610d26565b9392505050565b7f50726963652063616e6e6f74206265206c657373207468616e20657175616c2060008201527f746f203000000000000000000000000000000000000000000000000000000000602082015250565b600061149c602483610c4e565b91506114a782611440565b604082019050919050565b600060208201905081810360008301526114cb8161148f565b9050919050565b60006114dd82610bb6565b91507fffffffffffffffffffffffffffffffffffffffffffffffffffffffffffffffff820361150f5761150e610f8d565b5b600182019050919050565b600060408201905081810360008301526115348185610c9a565b90506115436020830184610c19565b939250505056fea2646970667358221220283849da5f77c7f798208a9bfd9ce4394cc12e1d42d13d33eebd3ebe8d8b37aa64736f6c63430008120033",
  "immutableReferences": {},
  "source": "// SPDX-License-Identifier: MIT\npragma solidity >=0.4.22 <0.9.0;\n\ncontract kart {\n    uint public counter = 1;\n    struct Product {\n        uint productId;\n\n        string desc;\n        string title;\n        address payable seller;\n        address buyer;\n        bool delivered;\n        uint price; // in ether\n    }\n    Product[] public products;\n    //events\n    event registered(string title,uint productId);\n    event bought(uint productId, address buyer);\n    event delivery(uint productId);\n    // Seller has to register and create product\n    function register(string memory _title,string memory _desc, uint _price) public {\n        require(_price > 0,\"Price cannot be less than equal to 0\");\n        Product memory tempProduct;\n        tempProduct.title = _title;\n        tempProduct.desc = _desc;\n        tempProduct.price = _price;\n        tempProduct.seller = payable(msg.sender);\n        tempProduct.productId = counter;\n        products.push(tempProduct);\n        counter++; // counter = counter +1;\n        emit registered(tempProduct.title,tempProduct.productId);\n    }\n    // Buyer will pay and buy the product\n    function buy(uint _productId) payable public {\n        // seller should not buy himself\n        require(products[_productId - 1].seller != msg.sender,\"Seller cannot buy\");\n        // buyer should transfer the price of the product\n        require(msg.value == products[_productId - 1].price * 10**18);\n        products[_productId - 1].buyer = msg.sender;\n        emit bought(_productId,msg.sender);\n    }\n    // Buyer confirms delivery and contract will pay to seller\n    function delivered(uint _productId) public {\n        //only buyer can call this function\n        Product memory tempProduct = products[_productId - 1];\n        require(tempProduct.buyer == msg.sender,\"Only buyer should call this\");\n        tempProduct.delivered = true;\n        products[_productId-1]=tempProduct;\n        tempProduct.seller.transfer(tempProduct.price * 10**18);\n        emit delivery(_productId);\n    }\n}\n",
  "sourcePath": "/Users/sanket/Desktop/onlinekart/contracts/kart.sol",
  "compiler": {
    "name": "solc",
    "version": "0.8.18+commit.87f61d96.Emscripten.clang"
  },
  "schemaVersion": "3.4.11",
  "updatedAt": "2023-02-11T15:10:40.298Z",
  "devdoc": {
    "kind": "dev",
    "methods": {},
    "version": 1
  },
  "userdoc": {
    "kind": "user",
    "methods": {},
    "version": 1
  }
}